:020000040800F2
:1000000070F400247904000823D30008E3B4000846
:1000100021D30008693C00087FEE000800000000C2
:10002000000000000000000000000000B90300080C
:10003000B943000800000000150400083FD800087C
:100040009704000897040008970400089704000824
:100050009704000897040008970400089704000814
:10006000970400089704000897040008753F0008EB
:1000700097040008970400089704000897040008F4
:1000800097040008970400089704000897040008E4
:1000900097040008970400089704000897040008D4
:1000A0009704000805DA0008970400089704000880
:1000B00019DA000825DA000831DA0008F1B400087E
:1000C000E5B4000809B50008FDB4000865D50008CE
:1000D00097040008D5EB0008E1EB0008970400083E
:1000E0009704000897040008000000009704000827
:1000F0009704000897040008970400089704000874
:1001000097040008970400089704000871D50008B8
:100110009704000897040008970400083DDA0008D7
:100120009704000897040008970400089704000843
:100130009704000897040008970400089704000833
:1001400000000000000000000000000000000000AF
:100150009704000897040008970400089704000813
:1001600021B5000815B50008970400089704000899
:100170009704000897040008970400080000000096
:1001800097040008970400089704000897040008E3
:100190007DD500089704000897040008970400081C
:1001A00097040008970400089704000897040008C3
:1001B00097040008970400089704000897040008B3
:1001C00097040008970400089704000897040008A3
:1001D0009704000897040008970400089704000893
:1001E0009704000897040008970400089704000883
:1001F0009704000897040008970400089704000873
:100200009704000897040008970400089704000862
:100210009704000897040008F9D90008970400081B
:1002200097040008970400089704000800000000E5
:1002300097040008970400080000000097040008D5
:100240009704000897040008970400089704000822
:100250009704000897040008970400089704000812
:100260009704000897040008970400089704000802
:100270009704000897040008970400080000000095
:100280009704000897040008970400080000000085
:10029000000000009704000800F002F800F07DF86C
:1002A0000AA090E8000C82448344AAF10107DA45D1
:1002B00001D100F072F8AFF2090EBAE80F0013F0A6
:1002C000010F18BFFB1A43F0010318479C1C0100E3
:1002D000BC1C01000A444FF0000C10F8013B13F065
:1002E000070408BF10F8014B1D1108BF10F8015B8F
:1002F000641E05D010F8016B641E01F8016BF9D182
:1003000013F0080F1EBF10F8014BAD1C0C1B09D1D8
:100310006D1E58BF01F801CBFAD505E014F8016B4A
:1003200001F8016B6D1EF9D59142D6D370470000DC
:100330000023002400250026103A28BF78C1FBD8EE
:10034000520728BF30C148BF0B607047662911F0C3
:10035000DF83642900F05281752900F04F8100206D
:1003600070471FB511F0CCFB9DE8030001F07CFC49
:1003700000F0A4FE04000020002111F0A3FB401CAB
:1003800060600020002111F087FBE06001F00EF8B2
:100390001FBD10B501F073F810BD01F0A3F81146B0
:1003A000FFF7DFFF0FF002FD01F032FC03B4FFF7AF
:1003B000F0FF03BC01F0CAFD2C4B19680868B0E8D7
:1003C000F04F80F30988BFF36F8F4FF0000080F388
:1003D000118870470000000008480068006880F33A
:1003E00008884FF0000080F3148862B661B6BFF34E
:1003F0004F8FBFF36F8F00DF00BF00BF08ED00E03D
:10040000DFF80C00016841F470010160704700BF23
:1004100088ED00E0EFF30980BFF36F8F134B1A688C
:100420001EF0100F08BF20ED108A20E9F04F106079
:1004300009B44FF0500080F31188BFF34F8FBFF322
:100440006F8F10F05BFD4FF0000080F3118809BC46
:1004500019680868B0E8F04F1EF0100F08BFB0EC44
:10046000108A80F30988BFF36F8F7047B8000024AB
:10047000EFF30580704700000A4880470A4880472C
:100480000A480047FEE7FEE7FEE7FEE7FEE7FEE775
:10049000FEE7FEE7FEE7FEE705480649064A074B8A
:1004A000704700003148000801D90008990200088F
:1004B00070EE002470F4002470F0002470F000242A
:1004C00053EA020C00F069802DE9F04B4FF0000672
:1004D000002B1FBFB3FA83F503FA05F424FA05F6DF
:1004E0005E4012BF1643B2FA82F502FA05F4C5F176
:1004F00020051EBF22FA05FC44EA0C04203556EA0A
:10050000044C4FEA144418BF641C4FF000084FF02D
:100510000009904271EB030C39D3002919BFB1FADD
:1005200081F701FA07F6B0FA80F700FA07F6C7F18B
:1005300020071EBF20FA07FC46EA0C062037B6FB50
:10054000F4FCA7EB0507103F07F01F0BCBF12006CB
:100550000CFA0BFB2CFA06F644BFB3460026202FFC
:10056000A4BF5E464FF0000B5BEA060C08BF4FF0DD
:10057000010B19EB0B09ABFB027C48EB0608C01B17
:1005800006FB02CC0BFB03CC71EB0C01C1E70B4665
:10059000024641464846BDE8F08B13B54FF00000D7
:1005A0004FF00001AFF30080BDE81C407047000031
:1005B0000FB4044910B503AA029800F0D7FC10BC90
:1005C0005DF814FB64ED00240FB41CB50C0007AA01
:1005D000009001D02044401E074B7B4469460190A7
:1005E000069800F0A2FC002C03D06946002000F021
:1005F000AFFC1CBC5DF814FB7D0900002DE9F04147
:100600000646002410687529314616A510D0AFF3B0
:100610000080002802DA404213A507E031688A070B
:1006200001D512A502E0490704D511A5012401E076
:10063000AFF3008000210A2206F1240709E0B0FB95
:10064000F2FCB0FBF2F302FB1C0030307854184689
:10065000491C0028F3D123462A463046BDE8F04124
:1006600000F0F5B9000000002D0000002B00000094
:10067000200000002DE9F0474FF0000A89460446AB
:10068000C0F820A02046E1688847002876D02528B9
:1006900006D0D4E901219047206A401C2062F1E78E
:1006A000E168204600258847C4F81CA006460027BC
:1006B000C4F818A02A2E09D030460FF09DFA38B39E
:1006C00004EB8708303EC8F8186019E059F8041B9D
:1006D000204604EB87029161E1688847012F0646B6
:1006E00018D1E069002820DA25F020051DE0D8F8AF
:1006F000180000EB800006EB40003038C8F8180006
:100700002046E168884706460FF076FA0028EED1C9
:10071000012F0AD02E2E08D12046E16888477F1C81
:100720000646022F45F02005C4DBA069002803DA45
:10073000404245F00105A061E80701D025F0100511
:10074000B6B1A6F14100192802D8203645F400655B
:100750004A463146204625604D46FFF7F7FD58B121
:10076000012806D0ED1D25F0070000F1080989E7F2
:1007700004E005F1040985E730468AE7206ABDE810
:10078000F08770B5064600F053F904680546304618
:100790000A22002100F04EFC2C6070BD10B5431CF5
:1007A00002E010F8011B71B18107FAD14FF001325C
:1007B00002C88C1A8C4314EAC211F9D0C01A0A0676
:1007C00003D0C01E10BDC01A10BD0A0401D0801E87
:1007D00010BD0902FCD0401E10BD032A40F230803B
:1007E00010F0030C00F0158011F8013BBCF1020F72
:1007F000624498BF11F801CB00F8013B38BF11F8F3
:10080000013BA2F1040298BF00F801CB38BF00F809
:10081000013B11F0030300F02580083AC0F0088086
:1008200051F8043B083A51F804CBA0E80810F5E76A
:10083000121D5CBF51F8043B40F8043BAFF300804D
:10084000D20724BF11F8013B11F801CB48BF11F8C2
:10085000012B24BF00F8013B00F801CB48BF00F892
:10086000012B704710B5203AC0F00B80B1E818504A
:10087000203AA0E81850B1E81850A0E81850BFF48A
:10088000F5AF5FEA027C24BFB1E81850A0E8185029
:1008900044BF18C918C0BDE810405FEA827C24BF7D
:1008A00051F8043B40F8043B08BF7047D20728BF0B
:1008B00031F8023B48BF11F8012B28BF20F8023B5A
:1008C00048BF00F8012B704702F0FF0343EA032200
:1008D00042EA024200F002B84FF000020429C0F0E0
:1008E000128010F0030C00F01B80CCF1040CBCF162
:1008F000020F18BF00F8012BA8BF20F8022BA1EBB4
:100900000C0100F00DB85FEAC17C24BF00F8012B98
:1009100000F8012B48BF00F8012B70474FF0000290
:1009200000B5134694469646203922BFA0E80C50E5
:10093000A0E80C50B1F12001BFF4F7AF090728BFC0
:10094000A0E80C5048BF0CC05DF804EB890028BF3C
:1009500040F8042B08BF704748BF20F8022B11F065
:10096000804F18BF00F8012B704710B5044610F0F7
:10097000030F08BF11F0030F40F015804FF0013E48
:10098000121FC0F20E8051F8043BA3EB0E0C2CEAB0
:10099000030C1CEACE1C08BF40F8043BF0D0A1F1C8
:1009A000040102F10402521E08DB11F8013B002B86
:1009B00000F8013BF7D11146FFF78EFF204610BD2E
:1009C0004FF0013C50F8042B51F8043B9A4215D1EA
:1009D000A2EB0C03934313EACC130BD150F8042B76
:1009E00051F8043B9A4209D1A2EB0C03934313EA5A
:1009F000CC13E7D04FF00000704700BFD01A01BA07
:100A0000B1FA81F101F0180122FA01F0CB40C1F1F5
:100A10002001DBB2C0B2C01A2CFA01F3D11A914303
:100A200011EAC311E6D17047704770477047000064
:100A3000004870470CEE002410B5FFF7F9FF00687E
:100A400010BD10B50446FFF7F3FF046010BD2DE99B
:100A5000F0470D4699469246044600F12408016885
:100A6000880604D5E06921F01001216000E0012032
:100A7000A84201DD471B00E00027A1697A1902EBBB
:100A80000900081AA0612078C00602D42046AFF3FE
:100A90000080002608E0D4E901211AF806009047FA
:100AA000206A401C761C20624E45F4DB2078C0068C
:100AB0000AD52046AFF3008006E0D4E901213020BA
:100AC0009047206A401C2062381EA7F10107F4DC21
:100AD00007E0D4E9012118F805009047206A401C7E
:100AE0002062281EA5F10105F3DC2046AFF300804B
:100AF0002078000602D50220BDE8F0870120FBE740
:100B000070472DE9FF4F0C461E464FF0FF378BB064
:100B1000D2E90001DDF860800A908A46C1F30A55E7
:100B200005B93D46002108464FF00000BAF1000F1C
:100B300000F4400005DA00EB80004FF4400101EAC8
:100B400050004FEA9059B9F1010F00DDB9460A98FB
:100B500050EA4A000ED044F61050A5F2FF35454346
:100B60002F14B8F1000F1ED07542291E1EDDC9F1E9
:100B700000021CE0B8F1010F4FF0000001D030215D
:100B800003E0F24305E02154401CB042FBDB304659
:100B90000022002121540B99C1F80880C1E90020EE
:100BA0000FB0BDE8F08FBD1B6D1CDEE74A4600DAD2
:100BB000694206A800F084FB06AB93E8070003AB8C
:100BC00083E8070050460A9901F090FC8DE8070081
:100BD000A0F500501F3800900398002D0ADD42F266
:100BE0001F014A460844002303A90390684601F008
:100BF0003BFF09E0A0F500504A461F38002303A937
:100C00000390684601F05AFF8DE807000004000CCD
:100C100003D04FF0FF30410800E01046B8F1000F5C
:100C200003D00022009215461EE0751E05D400F088
:100C300049FA303262556D1EF9D5B3460122084398
:100C400002D000227F1C04E02078302801D100224D
:100C50007F1E002A099784D01DE0112D07DA00F0CD
:100C600031FA303262556D1C50EA0102F5D1084369
:100C700002D00098C8B10EE00021681E05E0235C98
:100C8000625C63542254401E491C8142F7DBAB4630
:100C9000A81B401E0990002004F80B000B98099A2D
:100CA000C0F80880C0E9002B7AE711264FF0000851
:100CB00057E72DE9F04F88460446D21D22F0070180
:100CC00091B0D1E90001CDE90A010EF057F90246D1
:100CD0000B98C00F01D02D2007E02068810701D5B7
:100CE0002B2002E0202101EAC000032A099001D054
:100CF000072A05DB03464146204600F031FA0BE1A6
:100D00002078800601D5E06900E00620B8F1650F83
:100D1000814606D0B8F1660F18D0B8F1670F70D1D0
:100D200031E00020B9F1110F009001DB112301E047
:100D300009F101030AAA01A90CA8FFF7E2FEDDE907
:100D40000C70002609F10105834647E001204B465F
:100D500000904FF000470AAA01A90CA8FFF7D1FEA6
:100D6000DDE90DB00C995D46002610B909F10100CE
:100D70000D18B9EB050003D4C0F1FF3609F10105E8
:100D8000A5EB09002BE0B9F1010F01DA4FF00109E1
:100D90000020B9F1110F0090484601DD112300E059
:100DA00003460AAA01A90CA8FFF7ABFEDDE90C7007
:100DB0004D4600268346207800070AD4AB4500DA6A
:100DC0005D4601A8012D04DD411911F8011C3029EF
:100DD00007D04F4502DA17F1040F04DA01208246EA
:100DE0000FE06D1EEEE7002F02DCED1B3E4403E03A
:100DF000781CA84200DD7D1CB81B00F1010A4FF0F1
:100E000000472078000703D4AA4501DB4FF0FF3AE2
:100E10000021B7F1004F0DF143088DF8431024D0A5
:100E200002202B23002F01DA7F422D230A21021EEC
:100E3000A0F1010000DC5FB197FBF1FC97FBF1F240
:100E400001FB1C7C17460CF1300C08F801CDEEE7D5
:100E5000A8F1010003702188090501D5452100E0B2
:100E60006521A0F1010800F8011C09980FA9A1EB68
:100E70000807FF1D00B10120411901EBEA70A169CB
:100E80003844081A401EA0612078C00602D42046CB
:100E9000AFF30080099828B1D4E901219047206A76
:100EA000401C20622078C00622D52046AFF3008087
:100EB0001EE0002E04DBB34502DD01A8805D00E0EA
:100EC0003020D4E901219047206A401C2062761C22
:100ED000AAF101005FEA000A0AD100F0EFF8C06849
:100EE0000168405CD4E901219047206A401C2062DF
:100EF000281EA5F10105DCDC07E0D4E9012118F882
:100F0000010B9047206A401C2062381EA7F10107A0
:100F1000F3DC2046AFF30080032011B041E600006F
:100F200001694A1C02610878704700B58FB0CDE9AD
:100F300001310021059105497944CDE9031011469D
:100F40006846FFF797FB0FB000BD0000E5FFFFFF0D
:100F50000A6802F8010B0A607047D1E900239A423F
:100F600002D2531C0B60107070470000074B70B525
:100F70000D467B44FFF7D9FF0446284600F012FADD
:100F800010B14FF0FF3070BD204670BD8FED0000F6
:100F90000FB4002300B589B00CA900910B99CB6068
:100FA000214B7B440693214B7B44079304236FF032
:100FB0000042CDE901321E4A7A446B46089202464D
:100FC000002010F007FE09B05DF814FB70B506466E
:100FD0004FF0FF3015460C46324686B00091CDE901
:100FE000010169460020049004A8FFF7D1FF0246E2
:100FF0000498211825B108B1084600E02046286071
:10100000049800280DD0002A02DD0098884208D0FC
:101010003246081B69460094CDE9010404A8FFF795
:10102000B7FF06B070BD00003B0200005302000095
:10103000930100002DE9F04791460F468046044693
:10104000002614F8015B2DB100F030F80068405D17
:10105000C007F6D12B2D02D02D2D18D0641E4A4684
:101060003946204600F0DCF827B13968A14201D1A9
:10107000C7F800804FF0020471050BD540420028EC
:1010800003DDFFF7D5FC0460A007BDE8F08746F458
:101090008066E4E70028F8DAFFF7CAFC04606FF026
:1010A0000040F2E7004870470CEE002410B500F055
:1010B00005F8001D10BD00BF0D0A01000048704773
:1010C0002CEE002430B5B0F10A024FEA900E71F117
:1010D00000034EEA817EB0EB0E0061EB91014FEA16
:1010E000101E4EEA017E10EB0E0041EB11114FEA8B
:1010F000102E4EEA016E10EB0E0041EB11214FEA6B
:10110000104E4EEA014E10EB0E0041EB114140181B
:1011100041F100014FEAD00040EA41704FEAD101AD
:1011200010EB80054FEA810444EA907444EB01041B
:101130006D1944EB0404521BA3414FF0000348BF58
:101140000A3200D530BD401C41F1000130BD10B560
:101150000446FFF7ABFF0068005D00F0010010BD22
:101160002DE9F0411F46044603260168072A01F4D1
:10117000006004DB08B116A505E016A503E008B180
:1011800015A500E015A521F010002060A069C01E83
:10119000A0610FB1401EA0612046AFF300804FB1A7
:1011A000D4E9012138469047206A401C2062C01CC7
:1011B000206206E0206AFAE7D4E9012115F8010B64
:1011C0009047761EF8D22046AFF30080BDE8F0814C
:1011D0004E414E006E616E00494E4600696E6600DB
:1011E000426842B1016811F8013B23B1521EC0E9C7
:1011F0000012184670470121C160881E704742687E
:101200005AB1C368016843B983688B4205D0491E4F
:10121000521CC0E90012002070474FF0FF307047A9
:101220002DE9F05F824615468B4600270AF101043E
:10123000B9460078302801D09DB113E014F8010BB5
:101240000127782803D0582801D045B10AE00DB114
:10125000102D07D1002714F8010B102502E00825F6
:1012600000E00A250026B0460EE005FB080005FB5D
:1012700006F101271FFA80F801EB1046B6F5803F12
:1012800000D3B94614F8010B294600F077F900287D
:10129000EBDABBF1000F05D00FB1641E00E054463D
:1012A000CBF80040B9F1000F06D0FFF7C1FB0221D7
:1012B0000160C81EBDE8F09F48EA0640FAE700005A
:1012C0002DE9F047814616468AB0354878440DC866
:1012D0008DE80D0032487844801C03AC0DC884E8CA
:1012E0000D0041F69B300844372190FBF1F290FB52
:1012F000F1F5A5F1800501FB12041B3C02D5644207
:10130000012000E00020DFF898A080460027FA4482
:10131000AAF1BE0A0EE0E0070AD03246684607EBA3
:10132000470101230AEB810101F0C8FB8DE80700AA
:1013300064107F1C002CEED1194F7F44AE3F19E0A2
:10134000E80715D007EB04100DF1180A90E80E001D
:101350008AE80E00C068F04201D198190890324620
:10136000012306A903A801F0A9FB03AB83E807004A
:101370006D10641C002DE3D14FF001033246694625
:10138000B8F1000F03A802D001F06EFB01E001F0FC
:1013900095FBC9E90001C9F808200AB0BDE8F0874B
:1013A000EC0B0100007B00F08000704710B5424854
:1013B0005421FFF7B3FA41485421FFF7AFFA4048F0
:1013C0005421FFF7ABFA3F493B483C4A3F4B08608A
:1013D0003D490A603A491960531C0365481C106571
:1013E000012008653B48344A39A1784400F074FB79
:1013F00020B9384878440A3800F013FC37482F4A9F
:1014000035A1784400F068FB20B9344878440A38A4
:1014100000F007FC32482A4A2FA1784400F05CFB18
:1014200020B92F4878440A3800F0FBFB40232248BB
:10143000DC000021224600F02BFB20B12548784437
:10144000543800F0EEFB1D4822464023002100F0F6
:101450001FFB20B121487844543800F0E2FB1848C3
:1014600022461023002100F013FB002806D01C4860
:101470007844BDE81040563800F0D3BB10BD10488A
:1014800070B5006D20F001040B4800F09BFB0B4889
:1014900000F098FB0A4800F095FB09E0206D20F071
:1014A0000105204600F08EFB204600F040F82C4657
:1014B000002CF3D170BD000010ED002464ED002479
:1014C000B8ED0024380100243C0100244001002430
:1014D00072000000AA0901007700000099090100CC
:1014E000890901007546FFF7DDFDAE460500694636
:1014F000534620F00700854618B020B5FEF7CCFF14
:10150000BDE820404FF000064FF000074FF0000804
:101510004FF0000B21F00701AC46ACE8C009ACE885
:10152000C009ACE8C009ACE8C0098D46704770B589
:101530000446051F00F07CFB0068002C14BF4468C3
:1015400070BD002C18BFAC423CBF20466468F8D385
:1015500001680A18AA4218BF456003D12A680546E7
:101560001144016028684119A1421CBF6C6070BD24
:101570006168696021680844286070BD3A2800D21B
:10158000303820F02002412A01D3A2F137008842EE
:1015900001D34FF0FF3070472DE9FF4F06468BB067
:1015A0000878FF2806D0491C2D2805D000244FF0CC
:1015B000000908E000200CE00124F8E709EB8903AA
:1015C000491C00EB43090878FF28F7D114B1C9F191
:1015D00000008146107800252C46AA4629462D2871
:1015E00001D02B2804D1521C2D2813D00020824674
:1015F0008B461078FF280FD04FF0000C0A21521CA8
:10160000A5FB017804FB018105FB0C11C5194BEB0F
:101610000104EEE70120EAE7002108464FF0000050
:10162000BAF1000F02D000EB80004008C0F38157F0
:10163000012F01DD4FF0FF370E9955EA040009EB49
:1016400001080BD04FF0020918F5FA7F16DA4FEABD
:10165000CA70002F706008DD012007E04FEACA70F1
:10166000C6E900B00FB0BDE8F08F00203060FFF792
:10167000DFF9C0F800901821084616E0B8F5FA7FA7
:1016800018DD002F02DAF748784401E0F648784484
:10169000D0E90010C6E9001040EACA707060FFF798
:1016A000C7F9C0F80090142108460FB0BDE8F04F0C
:1016B00010F02BBA002108464FF00000B8F10001ED
:1016C000099002DAC7F1000200E03A4601DAC8F1F7
:1016D000000106A8FFF7F4FD06AB93E8070003AB93
:1016E00083E8070044F23E005BEA0401009058469C
:1016F00004D144F21E012C465D460091210C0904E0
:10170000014306D10099240444EA15442D041039FC
:10171000009104F07F41014306D10099240244EA7C
:1017200015642D020839009104F07041014306D17F
:101730000099240144EA15742D01091F009104F059
:101740004041014306D10099A40044EA9574AD00DC
:10175000891E009104F00041084304D100986D19DE
:101760006441401E00904FF001033A466846B8F1CC
:10177000000FCDE9014503A902DD01F0B4F901E054
:1017800001F087F9BAF1000F04460D4601D084F04C
:101790000044002108464FF00000099940F2FF770D
:1017A000484010F00C0F07D124F00040284303D02C
:1017B000C4F30A50B84212D1FFF73AF9C0F80090CA
:1017C000C4F30A50B8420AD1A8487844D0E90010BE
:1017D000C6E9001004F000410843706042E7C6E922
:1017E00000543FE72DE9FF4F1F464FF0000A4FF02E
:1017F000FF38454691B0D7E90146CDF83CA0FFF748
:101800005DFCC0680168405C1090B96912986D1C5D
:101810008847396A814688470028F6D1B9F1FF3FE9
:101820000AD0002E24F4D06411DDB9F12B0F08D0BA
:10183000B9F12D0F0BD102E0404615B013E744F487
:101840008064B96912986D1C8847761E81466005D0
:1018500004A901D52D2000E02B20002E01F1010B61
:101860000DF130088DF810003FDDB9F1690F08D097
:10187000B9F1490F05D0B9F16E0F02D0B9F14E0F91
:101880001CD13B4601A8009580E85002DDE9121208
:101890006FF0020010F0A2F9C11CCED10EE0B969C0
:1018A00012986D1C884781461398761E44F4007484
:1018B00005600F98401C002E0F9016DDB9F1300F17
:1018C000EDD0B9F1780F02D0B9F1580F0DD10F98C2
:1018D00001280AD13B46CDE90054DDE91212001F70
:1018E000029610F079F9C11CA7D1109989453ED113
:1018F00044F0800406E01399681CAAF1010A44F43C
:1019000000740860B9696D1C1298761E88473028EB
:101910008146F0D02BE01099894505D1200603D4EB
:10192000761E44F0800418E048460EF065F908B3CE
:10193000761E0DF123018B4544F4007408D2A9F101
:1019400030000BF8010B200607D5AAF1010003E0D7
:10195000200602D40AF101008246A00502D513999F
:10196000681C0860B96912986D1C88478146002E72
:10197000D1DC53E0002E51DDB9F1650F02D0B9F191
:10198000450F4BD1A00549D5B9696D1C1298761E3B
:1019900024F440748847002E81460CDD2B2804D0A7
:1019A000B9F12D0F07D144F48074B96912986D1CF8
:1019B0008847761E8146E00501D52D2100E02B21C8
:1019C00008F8011BCDF8008021E0761E0DF13901E9
:1019D000884544F400740CD2A9F1300010F0FF00E7
:1019E00088F8000002D10099884509D908F101085A
:1019F00006E0E00501D51E4801E042F20F70824684
:101A0000B96912986D1C8847814613980560002EAD
:101A100004DD48460EF0F0F80028D6D1F969129896
:101A20008847FF2053468BF8000088F8000000200C
:101A30000A900B9004AA0CA90AA8FFF7ADFDA00517
:101A400002D46FF00100F8E614F0240F12D0E00782
:101A50001CD13868DDE90A12031D3B600068C0E94B
:101A6000001213E004090100F6080100BA070100A2
:101A7000F1D8FFFF0AA968460EF056F8E00705D135
:101A80003868009A011D3960006802602846D4E673
:101A900070B5C468A50713D0650211D4B2F5807F74
:101AA00009D0B2F5007F06D0B2F5806F08D10123CE
:101AB00000F1240106E05D1E6FF07F46B54201D3C0
:101AC000012070BD0161C361416024F47061114364
:101AD000C160002070BD00002DE9F0410C460746B2
:101AE0001646104600F06EF82078611C61280AD076
:101AF000722802D077283CD102E00125002405E0BD
:101B00000225042402E0082448F2020511F8010B22
:101B10002B2806D0622809D011F8010C74280AD0AD
:101B20000BE045F0030544F00204EFE745F004053F
:101B300044F00104EAE744F01004384621460EF070
:101B400081F8411C15D00021316171604FF40071A2
:101B5000F560F1617061200704D530460222002152
:101B600000F0E0F8306D40F0010030653046BDE82F
:101B7000F0810020FBE72DE9F0410D460646104CB0
:101B8000206DC10704D0410804D020F00104F7E71C
:101B900022460EE0542000F096F807000ED0206D8B
:101BA00047F001010843542120653846FEF7B6FE90
:101BB0003A4629463046BDE8F0418DE70020D6E799
:101BC00010ED00242DE9F04704464FF000094FF0D6
:101BD000FF37C568D4E90486A80707D0204600F07F
:101BE00051F930460EF00FF8002802DA3846BDE809
:101BF000F087280502D54046FFF799FC4C21204686
:101C0000FEF78CFE206D20F0010020654846EEE7CF
:101C100010B50446AFF300802046BDE81040FEF743
:101C2000C5BB10B500F078F9BDE8104000F06EB902
:101C30000048704714EE00247047704770477047A3
:101C400038B504460A4600206946AFF300800028F4
:101C500008BF38BD02460099204600F084F90120F3
:101C600038BD012000F0FEBBF8B5AFF3008005469B
:101C700000200C46102000BF0646A819A0420DD92E
:101C8000324669460020AFF30080070008BF00F02D
:101C9000E9FB0098A04218BF0546C419FFF7C8FF2A
:101CA00005600746F01D20F007004619284600F0A1
:101CB00053F9B44208BFF8BDA21B31463868BDE8ED
:101CC000F84000F050B970B50646FFF7B1FF05685F
:101CD00006F10B0020F00704B4429CBF002070BD49
:101CE0002B466A68BAB11068A04210D304F108010B
:101CF00088423CBF5068586007D351681019416052
:101D00001168091B016058601460101D70BD1346F6
:101D10005268002AE7D121462846FFF791FF0028A4
:101D2000DED170BD2DE9F041044616460D464769E7
:101D3000007B80072ED038460DF077FF50BB3EB3B6
:101D4000012E02D0022E25D104E0204600F050FBE7
:101D500005441DE038460DF062FFE168002841F0BF
:101D60001001E16005DA204600F058F80120BDE8D6
:101D7000F081C9030BD56268E16A914200D811462F
:101D8000A26911442269891A814200DD084605448E
:101D9000002D01DA0220EAE7E16A6068E268814228
:101DA00006D29103E06203D522F4003141F0100223
:101DB000A6690027AE4213DCE16A814201D90B46D5
:101DC00000E0034603EB060C2369ACEB030CAC45C7
:101DD00006DD814201D98C4600E084469C4505D150
:101DE000A760276042F02000A5620DE0AD1BE66908
:101DF000AE1B8142A66000D90846C01A281A20608E
:101E00005819606022F0200003490840E06000207B
:101E100084F84870ABE70000BFCFD7FFC16821F45A
:101E2000001141F08001C1600021816001607047B4
:101E30002DE9F047814614460E464FF0FF383248F0
:101E4000D5685769054209D03846A1690DF028FFC9
:101E5000002811DB2C48C0430540E5602B46324684
:101E6000494638460DF021FFA16920F00042B21A20
:101E700011440028A16103D02046FFF7CFFF404660
:101E8000BDE8F08770B504460569C06A616888429C
:101E900000D80846E16821F42011E160C90312D599
:101EA000A84208D02246411B2846FFF7C1FF10B1C7
:101EB0004FF0FF3070BD0020E562C4E90150E068DA
:101EC00020F48030E060002070BD10B50446C0688A
:101ED00020F02000E060A16AA06988420DD0204671
:101EE000FFF7D0FFE06820F4405040F01000E060C1
:101EF000A06AA0612069E062606044F24001E0688D
:101F00008843E06010BD000010000200002801D0EE
:101F100000F01CB87047000010B5014602A000F0A8
:101F200088FA012010BD00005349475254524544DD
:101F30003A2052656469726563743A2063616E2762
:101F400074206F70656E3A2000000000014918206F
:101F5000ABBEFEE72600020000210160C0E90110CF
:101F6000704710207047034640688C46002818BF11
:101F700088423CBF03464068F8D31868184488423A
:101F800007D00CF1030020F00700001D411A521A7F
:101F90000146081D0A60FFF7CABA00002DE9FF4F8D
:101FA0001F464FF03C0987B04FF00042DDE91410A6
:101FB00001F10108DDF858A002EA4050039000202A
:101FC00005908346054604460490B969461E089864
:101FD0008847AAF1010A0290BAF1000F3BDD02988E
:101FE0002E2815D01021FFF7C9FA00282EDB4FF05C
:101FF000010B0599014317D0B9F1000F0BDB4A46DD
:10200000C11700F037FA05430C43A9F1040905E0B4
:10201000012004900BE008B145F001050120059076
:10202000049820B9361D02E0049800B1361FB96942
:10203000089808F101088847BBF1000FAAF1010ACE
:102040000290C9D00999C1F80080C5E702987028AC
:1020500008D0502806D0F96908988847BBF1000FCE
:1020600014D04FE0002002900120BBF1000F04903B
:1020700009D0B969089808F101088847AAF101094F
:10208000B9F1000F07DCF969089888476FF0010083
:102090000BB0BDE8F08F2B2804D02D280CD14FF0C9
:1020A000FF300490B969089808F101088847A9F140
:1020B0000109B9F1000FE6DD411CE4D00A21FFF768
:1020C0005DFA0028DFDB029908F1010801EB8101CC
:1020D00000EB41000290B969089888470A21FFF790
:1020E0004DFA099AA9F10109B9F1000FC2F800806F
:1020F00001DD0028E7DAF969089888470499029811
:1021000000FB016655EA040004D004F040410900D8
:1021100002D006E0039898E0A40044EA9574AD006C
:10212000B61E04F00041080002D16D196441761E0C
:10213000159810F0240F03D04FF00B095C4803E012
:102140004FF028096FF07D008246564507DAAAEB6A
:1021500006018944B9F1410F01DD4FF04109012029
:102160000021A9F1010200F085F9024628400B4642
:102170002140084301D0012100E00021501E0291BE
:1021800043F1FF3128402140084301D0012000E005
:1021900000200299834651EA0B014FD000210846E6
:1021A0004FF00000039900F4400039B100EB8000CB
:1021B0004FF4400100EBD07001EA60008015012867
:1021C00002DD4FF0FF3000E013D0401C36D0029803
:1021D00060B3BBF1000F0CD14A460120002100F092
:1021E00049F928402140084301D0012000E00020A7
:1021F000E0B101204A46002100F03CF903464019B5
:102200000A4661412D1A8C4111D3B9F1400F09DD05
:10221000159810F0240F02D0AAF1340603E0AAF1B9
:10222000170600E0761C00254FF0004406E05B1E18
:1022300042F1FF3220EA030521EA0204CAF101005B
:10224000B04206DA1B490398084301900020009031
:102250000EE0039AC4F3D321E80A0A43164940EA80
:1022600044500A433146CDE9000268460DF068FC4F
:10227000159810F0240F0BD01598C00715D13868A9
:10228000DDE90012031D3B600068C0E900120CE0AC
:1022900002A869460DF048FC1598C00705D13868BA
:1022A000029A011D3960006802604046F0E60000B5
:1022B00002FCFFFF0000F07F0000F03F2DE9FF4F20
:1022C00092461D4685B04FF00041DDE9124BDDE935
:1022D00014727F1E01EA4B50414940F0FF4940EA29
:1022E0000108002122F020004928049102D04E2844
:1022F00028D04CE03BA0012607C88DE80700A9695B
:102300000698641C88477F1E014606D41DF8060007
:1023100018B121F0200181420BD0E9690698884765
:10232000032E34D0082E32D06FF0010009B0BDE882
:10233000F08F761C032E01D0082EE0D1601CCAF865
:102340000000DCE7A9690698641C88477F1E2AD430
:1023500020F02000412826D1A9690698641C8847EE
:102360007F1E20D420F020004E281CD1A969069899
:10237000641C88477F1E48F4002849F48009CAF885
:10238000004001D4282806D0E969069888475FEA0A
:10239000CB7012D022E0A9690698641C88477F1E82
:1023A00001D4002803DAE96906988847BCE72928A0
:1023B000F1D1641CCAF80040E9E71BF0240F07D0F4
:1023C00028680499031D2B600068C0E9001805E027
:1023D0002868021D2A600068C0F800902046A5E722
:1023E0000000F07F494E46494E4954590000000014
:1023F00010B50146C268900703D0900607D5886AD9
:102400000AE0FEF715FB01210160881E10BD8B69F3
:10241000486818440B69C01A91F848301BB191F80C
:102420004910401A10BD1103FCD50028FADD401EEA
:1024300010BD70B505460C460A2000E06D1C0DF07D
:1024400052FC35B128780028F8D102E0641C0DF068
:102450004AFC14B120780028F8D1BDE870400A2069
:102460000DF041BC10B500F019F8BDE81040FFF7C1
:102470004DBD7047B2F120030AD5C2F1200301FA25
:1024800002F120FA03F300FA02F041EA0301704777
:1024900000FA03F14FF000007047000010B501286A
:1024A00005D0002103A0FFF7C4FF012010BD09A142
:1024B000F8E7000053494752544D454D3A204F75B7
:1024C00074206F662068656170206D656D6F72792C
:1024D000000000003A2048656170206D656D6F72E4
:1024E0007920636F72727570746564005FEA400CE6
:1024F00008BF91F0000F4FEA8C234FEAC12243EA54
:1025000051514FEA1C5018BF00F5F0404FEA30001F
:1025100018BF41F000415FEA6C5C00F02980BCF11B
:10252000FF3F08BF40F080407047130C06BF120405
:102530004FF0100C4FF0000C130E04BF12020CF100
:10254000080C130F04BF12010CF1040C930F04BF0D
:1025500092000CF1020CD30F04BF52000CF1010CDD
:1025600011464FF00002A0F11F00A0EB0C007047D5
:1025700011F0004F08BF704731F000413FF4D5AF74
:102580000B0C06BF09044FF0100C4FF0000C0B0EA3
:1025900004BF09020CF1080C0B0F04BF09010CF178
:1025A000040C8B0F04BF89000CF1020CCB0F04BF8D
:1025B00049000CF1010CCCF12003A0EB0C0022FA35
:1025C00003F302FA0CF241EA030100F10100704743
:1025D00020F07F4C80EA030023F07F47ACEB070339
:1025E00003F57C5300F0004003F1FF032DE980491F
:1025F0004FEA154B09B44FEA144325EA0B4E24EA7F
:1026000003480FF2042606EB132749083E785FEAD9
:10261000320203FB0667C7F5000707FB06F64FEA21
:1026200054374FEAD64606F1020607FB066CCCF19A
:10263000005C4FEA1C472CEA074C07FB06F40CFB36
:1026400006F504EB15464FEA961634BF00204FF00E
:1026500000404FEAD13706FB07FC4FEA1C4C0CFB4D
:102660000BF7D21B03FB0CF761EB07010CFB0EF71A
:10267000B0EB074072EB17420CFB08F734BFA2EB3C
:102680000742B2EB074261EB17414FEA0C444FEAB5
:10269000910706FB07FC4FEA1C4C0CFB0BF7B0EB59
:1026A000C74072EB573203FB0CF734BFA2EBC742B3
:1026B000B2EBC74261EB57310CFB0EF7B0EBC70032
:1026C00072EB57720CFB08F734BFA2EBC702B2EBF8
:1026D000C70261EB5771039F4FEA816141EA921192
:1026E00004EBCC044FEAD1374FEA826206FB07FCC9
:1026F00042EA90124FEA80604FEA1C4C0CFB0BF749
:10270000D21B03FB0CF761EB07010CFB0EF7B0EBE0
:10271000074072EB17420CFB08F734BFA2EB0742ED
:10272000B2EB074261EB17414FEA8C554FEA910734
:1027300004EB9C2406FB07FC4FEA1C4C0CFB0BF73C
:10274000B0EBC74072EB573203FB0CF734BFA2EB80
:10275000C742B2EBC74261EB57310CFB0EF7B0EB4F
:10276000C70072EB57720CFB08F734BFA2EBC7022D
:10277000B2EBC70261EB577115EB4C254FEA816153
:1027800041EA92114FEA82624FEAD13742EA90124F
:1027900006FB07FC44F100044FEA80604FEA1C4C42
:1027A0000CFB0BF7D21B03FB0CF761EB07010CFBD7
:1027B0000EF7B0EB074072EB17420CFB08F734BF83
:1027C000A2EB0742B2EB074261EB174115EB1C1578
:1027D0004FEA813141EA92414FEA823242EA904225
:1027E0004FEA80304FEA0C7644F1000448EA034394
:1027F0004EEA0B484FF0000EB2EB080C71EB0307EA
:1028000024BF624639464EEB0E0E4FF0000B001807
:10281000524149414BEB0B0BB2EB080C71EB030738
:102820007BF1000B24BF624639464EEB0E0E4FF093
:10283000000B0018524149414BEB0B0BB2EB080C5B
:1028400071EB03077BF1000B24BF624639464EEB68
:102850000E0E51EA020718BF46F0010616EB0E767F
:1028600055F1000254F1000103D5BDE88901BDE82E
:102870000088BDE88901BDE80048B619524141EB26
:102880000101A3F10103704780807F7E7D7C7B7A0C
:102890007978777676757473727171706F6E6E6D0C
:1028A0006C6C6B6A6A6968686766666564646363B2
:1028B00062616160605F5F5E5E5D5D5C5C5B5B5A38
:1028C0005A595958585757565655555554545353A5
:1028D00052525251515050504F4F4F4E4E4D4D4D00
:1028E0004C4C4C4B4B4B4A4A4A494949484848474B
:1028F0004747474646464545454444444443434389
:10290000434242424241414146EA0646A3F57053E2
:102910004FEA164646EA42564FEAD22242EA41526E
:1029200010B54FEAD121A3F1010300F02FF820F0F8
:10293000004000F1020C00F0004701EB005011468E
:10294000BCF5006F40EA070000D210BDBAF1000FDD
:102950000AD01CB503B44FF004004FF004014FF04F
:1029600000000FBCBDE810404FF00001BBF1010FAB
:10297000B9BF04484FF0FF310348002140EA070087
:1029800010BD00BFFFFFEF7F0000F07F002B9C46D3
:1029900030D477002BD01CB54FEA370703B44FF083
:1029A00010004FF01001BAF1000F06D0BCF1000F7B
:1029B000DCBF40F0080040F008014FF000000FBC01
:1029C000BDE810400BF1010BBBF1010F08BF5FEA3E
:1029D000170722BF12F1010211F101014FF000416E
:1029E00043F1000300F0004043EA00007047F9D3D0
:1029F0005708D0E746EA064613F1400F4FEA16465D
:102A00001FDD13F1200FDFBF16430A4600212033DC
:102A10005B42BED0C3F1200746EA064602FA07F73A
:102A20004FEA164646EA0706C3F1200722FA03F2E8
:102A300001FA07F721FA03F14FF0000342EA070217
:102A4000A7E746EA020646EA06464FEA164646EA7F
:102A50000106BCBF46EA0646360C4FF000034FF0B5
:102A600000024FF0000194E72DE9804C9A4693460E
:102A700070B491E8380007C831EA400C48BF34EA26
:102A8000430C03D5FFF7A4FDFFF780FFF0BCBDE8C2
:102A9000008C2DE9804C9A46934670B491E838003A
:102AA00007C831EA400C48BF34EA430C03D5FFF7AE
:102AB0008FFDFFF729FFF0BCBDE8008C2DE9804CAD
:102AC0009A46934670B491E8380007C810F0804FDA
:102AD00008BF13F0804F03D100F01AF8FFF756FF3C
:102AE000F0BCBDE8008C2DE9804C9A46934670B44A
:102AF00091E8380007C810F0804F08BF13F0804FEE
:102B000003D100F005F8FFF7FFFEF0BCBDE8008C34
:102B100020F07F4780EA030023F07F4C07EB0C0393
:102B2000A3F57C5300F00040A3F1FE0392F0000FE8
:102B300000F0B38095F0000F00F077802DE9014997
:102B40004FEA11404FEA144621EA004800FB06FC18
:102B500024EA064708FB06F607FB08F800FB07F720
:102B600018EB06484CEB164C4FEA124B18EB074893
:102B70004FEA15464CEB174022EA0B4E0BFB06FCC6
:102B800025EA06470EFB06F607FB0EFE0BFB07F7D2
:102B90001EEB064E4CEB164C4FF000061EEB074E9C
:102BA0004CEB174B18EB0B0840F1000018EB0E0B29
:102BB00058EB000840F100008F1A4FF000013CBFB5
:102BC000C943661B14BFB5EB040C00213CBFC943CD
:102BD000F61B4FEA17444EEA8E0E27EA04454FEAE9
:102BE0001C4704FB07622CEA074C05FB07F70CFBAC
:102BF00005F604FB0CFC16EB074642EB174216EBFE
:102C00000C4642EB1C421BEB060658EB020241410C
:102C100046EA9E0601D5BDE80189B619524141EB4D
:102C20000101A3F10103BDE801894FEA14454FEA10
:102C3000114724EA054621EA074C05FB07F406FB89
:102C400007F70CFB06F105FB0CFC11EB074144EB0D
:102C500017444FEA124711EB0C4144EB1C4422EAA3
:102C6000074C05FB07F206FB07F70CFB06F605FB16
:102C70000CFC16EB074642EB174216EB0C4642EBF8
:102C80001C456A1854F1000148BF7047B6195241FB
:102C900041EB0101A3F10103704795F0000F37D01C
:102CA0004FEA11424FEA144721EA024624EA074C50
:102CB00002FB07F106FB07F70CFB06F402FB0CFC1A
:102CC00014EB074441EB17414FEA154714EB0C4452
:102CD00041EB1C4125EA074C02FB07F506FB07F711
:102CE0000CFB06F602FB0CFC16EB074645EB174502
:102CF00016EB0C4645EB1C42121951F1000148BF7E
:102D00007047B619524141EB0101A3F1010370472D
:102D10004FEA14454FEA114724EA054621EA074CD9
:102D200005FB07F106FB07F70CFB06F24FF0000668
:102D300005FB0CFC12EB074241EB174112EB0C4276
:102D400051EB1C4148BF7047921841EB0101A3F1C0
:102D50000103704770B53A4905460068884202D0C1
:102D6000384A904202D1D1F8080302E03648D0F840
:102D7000080310F4403F11D006F0B0FC0446686828
:102D8000B0F5803F06D0B0F5003F03D0B0F5403F2E
:102D900027D101E0000C18E0A40822E000214FF444
:102DA000002005F005FD044668688103890B18D1F1
:102DB00081140C2915D2DFE801F014060606060678
:102DC000060B0D0F1113800C4000B4FBF0F408E06B
:102DD000240906E0640904E0A40902E0E40900E033
:102DE000240A04F055FC41F20301884208D8174830
:102DF00084422868816813D821F48071816070BD95
:102E000013496008884204D82868816821F4407119
:102E1000F4E71049884206D82868816821F4407197
:102E200041F48071EAE70C4988422868816804D837
:102E300021F4407141F40071E0E741F44071DDE7B5
:102E4000002002400021024000600258002D3101A4
:102E5000105E5F0020BCBE0040787D0170B5044666
:102E600004F01CFC62780546217861A0FDF7A0FB08
:102E700020780F287ED2DFE800F00812263AB94702
:102E80005B6F7988B9B9B9B99E006078032871D1B0
:102E900062A0FDF78DFBBDE8704000F063BE607876
:102EA000012808D0022865D167A0FDF781FBBDE8A5
:102EB000704000F011BC6DA0FDF77AFB2846BDE81C
:102EC000704000F0B9BB6078012808D0022851D1C9
:102ED0006EA0FDF76DFBBDE8704000F0F5BB74A07F
:102EE000FDF766FB2846BDE8704000F083BB6078C4
:102EF000012803D0022879D176A062E07FA0FDF7F7
:102F000057FB012029466DE06078012808D002288F
:102F10006CD184A0FDF74CFBBDE8704000F0B8BB5D
:102F20008BA0FDF745FB2846BDE8704000F014BBC0
:102F30006078012808D0022858D18FA0FDF738FB0F
:102F4000BDE8704000F0ACBB95A0FDF731FB284612
:102F5000BDE8704000F024BB6078032846D19AA0F9
:102F6000FDF726FBBDE8704000F0F2BD6078012857
:102F700005D000E03AE0022838D19EA00BE0A8A0DE
:102F8000FDF716FB0120294611E06078012809D0E1
:102F900002282BD1ADA0FDF70BFB2846BDE8704001
:102FA00000F086BBB4A0FDF703FB00202946BDE876
:102FB000704000F015BB6078012809D0022815D1B7
:102FC000B7A0FDF7F5FA2846BDE8704000F08CBBCD
:102FD00000F0D8FD00F0D0FD0146BBA0FDF7E8FAF7
:102FE00000202946BDE8704000F048BB70BD0000DD
:102FF0005B427574746F6E5D204576656E742072E9
:10300000656365697665643A2049443D25752C20E1
:103010004576656E743D25750D0A00005B4275743A
:10302000746F6E5D204353303A2054454D505F4FCE
:103030004E5F4F46462073696E676C6520707265FF
:1030400073730D0A000000005B427574746F6E5D4F
:10305000204353313A2054454D505F5550207265FE
:103060006C65617365640D0A000000005B42757455
:10307000746F6E5D204353313A2054454D505F5577
:103080005020707265737365640D0A005B4275743D
:10309000746F6E5D204353323A2054454D505F4467
:1030A0004F574E2072656C65617365640D0A0000B0
:1030B0005B427574746F6E5D204353323A20544501
:1030C0004D505F444F574E20707265737365640DA9
:1030D0000A0000005B427574746F6E5D20435333C9
:1030E0003A2054494C545F464F5257415244207243
:1030F000656C65617365640D0A0000005B42757460
:10310000746F6E5D204353333A2054494C545F46EC
:103110004F525741524420707265737365640D0AB3
:10312000000000005B427574746F6E5D2043533580
:103130003A20424C44435F53504545445F444F5707
:103140004E2072656C65617365640D0A00000000B5
:103150005B427574746F6E5D204353353A20424C68
:1031600044435F53504545445F444F574E2070726F
:1031700065737365640D0A005B427574746F6E5DF0
:10318000204353363A20424C44435F535045454414
:103190005F55502072656C65617365640D0A0000AF
:1031A0005B427574746F6E5D204353363A20424C17
:1031B00044435F53504545445F55502070726573DA
:1031C0007365640D0A0000005B427574746F6E5D78
:1031D000204353373A20424C44435F4F4E5F4F46A3
:1031E000462073696E676C652070726573730D0A93
:1031F000000000005B427574746F6E5D20435338AD
:103200003A20494D4147455F4D4F56455F5249472A
:1032100048542072656C65617365640D0A00000096
:103220005B427574746F6E5D204353383A20494D8C
:103230004147455F4D4F56455F52494748542070BE
:103240007265737365640D0A000000005B4275745B
:10325000746F6E5D204353393A20494D4147455FB5
:103260004D4F56455F4C4546542072656C65617301
:1032700065640D0A000000005B427574746F6E5D3A
:10328000204353393A20494D4147455F4D4F5645FC
:103290005F4C45465420707265737365640D0A0077
:1032A0005B427574746F6E5D20435331343A205421
:1032B000494C545F524556455253452072656C65E2
:1032C000617365640D0A00005B427574746F6E5D16
:1032D00020435331343A2054494C545F52455645AB
:1032E00052534520707265737365642028626F6F56
:1032F000746C6F6164657220636F756E743A20251B
:1033000064290D0A0000000010B501F075FA10B133
:1033100006A0FDF74DF900F0CDFA01F0C1F800F07C
:10332000EFF9BDE8104000F0EBB900005741524EF4
:10333000494E473A20427574746F6E2F446973701A
:103340006C617920696E697469616C697A6174690C
:103350006F6E206661696C6564210D0A00000000D3
:1033600003490020C87008310870891D0870704733
:103370003000002470B5354D044640F6B83695F857
:103380003400A8B1E868201A12D4A86B95ED000AA1
:10339000201AB04202D3F0EE000A01E0F6EE000A75
:1033A00030EE200A00F09EFB2046EC6000F0C8FBE7
:1033B00095F83500A8B1E868201A12D4A86B95EDED
:1033C000000A201AB04202D3F0EE000A01E0F6EE45
:1033D000000A30EE600A00F085FB2046EC6000F049
:1033E000AFFB95F8360090B1A869201A0FD4E96BAD
:1033F000288A611AB14201D3322100E00A2108442F
:1034000080B200F031FB2046AC6100F091FB95F8F2
:103410003700B0B1A869201A13D4E96B288A611A61
:10342000B14201D3322100E00A21884202D3401A7E
:1034300080B200E0002000F017FB2046AC6100F0F5
:1034400077FB2046BDE8704000F00EBAE408002487
:103450002DE9FE4F00250095019500F0E3FB9FED5F
:103460002C0A02A84FF0380A00F0A8FF002402AE90
:10347000601DC1B22748325D0BF064FD641C042C52
:10348000F6DB6E464FF000090527012400204FF4BB
:10349000C87803E0052C0CD8002003E0411C06F896
:1034A00000A0C8B2A042F9D300216846355501F00A
:1034B00041F800F0D1FB20B117A0FDF779F800F03A
:1034C000ADFB40460CF014FD641CE4B2BC42E1D9F3
:1034D00009F1010000F0FF09B9F1030FD4D3002175
:1034E0001CA001F027F805240A480022E1B20BF0E5
:1034F00029FD641C082CF7DD32200CF0F9FC00F0EB
:10350000F9FFFFF72DFF64200CF0F2FCBDE8FE8F01
:103510008FC21540501400245B426F6F746C6F6152
:103520006465725D20435331342074726967676546
:10353000722064657465637465642C20656E7465BF
:1035400072696E6720495350206D6F64652E2E2E70
:103550000D0A00000000000070B5104D044695F8FB
:10356000400028B1298A0A2909D30A3988B207E01C
:10357000022085F84000204600F094FA02E0002086
:1035800000F072FA204600F0D3FA012185F83710D6
:10359000EC6304F16400A86170BD0000E40800243D
:1035A00070B50E4C054694F8400078B1208A0A3078
:1035B00080B200F059FA284600F0BAFA012184F8E6
:1035C0003610E56305F16400A06170BD022084F847
:1035D0004000284600F066FAEDE70000E408002409
:1035E000034A012382F8583082F85900D1657047A8
:1035F000E408002470B50F4D044695F8480090B1DA
:1036000095ED000AF6EE000A30EE600A00F06AFA64
:10361000204600F095FA012185F83510AC6304F1DD
:103620006400E86070BD022085F84800204600F084
:103630004BFAEDE7E408002470B50F4D044695F809
:10364000480090B195ED000AF6EE000A30EE200A2F
:1036500000F048FA204600F073FA012185F8341092
:10366000AC6304F16400E86070BD022085F8480096
:10367000204600F029FAEDE7E4080024034A01237C
:1036800082F8503082F8510051657047E4080024F8
:103690000248002180F83710C1637047E408002415
:1036A0000248002180F83610C1637047E408002406
:1036B000044890F85810002902D0002180F85810D2
:1036C00070470000E40800240248002180F835100B
:1036D00081637047E40800240248002180F8341018
:1036E00081637047E4080024044890F850100029D2
:1036F00002D0002180F8501070470000E408002438
:10370000F0B587B03C4D00200290039004900590E6
:10371000287F012808D0287D40B16B8A062137A276
:1037200002A8FCF751FF06E02B8AF7E7062134A236
:1037300002A8FCF749FF95F8240001280ED0287A4A
:1037400078B195ED010A00BFB7EEC00A06212DA29F
:1037500004A88DED000BFCF737FF07E095ED000A9C
:10376000F2E7062126A204A8FCF72EFF274C6E7F65
:1037700095F825502078E17826EA000625EA00052C
:1037800041B104F1080102A8FDF71AF910B96078F7
:10379000864201D0012700E00027E07840B11B49B4
:1037A00004A80E31FDF70CF910B9A078854201D0BC
:1037B000012000E00020002F07460AD01348052210
:1037C00002A90830FDF7D1F802A83146667000F072
:1037D000B1FE57B10D48052204A90E30FDF7C5F81A
:1037E00004A82946A57000F043FFE078002801D125
:1037F0000120E07007B0F0BDE4080024257500004A
:103800004F464600252E316600000000300000249F
:1038100070B503F043FF124A0346002540F6B83462
:10382000507F38B1106A181AA04203D300F032F961
:1038300082F8405092F8250038B1906A181AA042D8
:1038400003D300F037F982F8485006484168591A06
:10385000C82904D3017881F001010170436070BD73
:10386000E40800243000002470B50B4C054694F8A1
:103870002C0000280FD0E068A169281A691A884234
:1038800000D20146B1F57A7F05D300F0D3F80020CD
:1038900084F82C00256370BDE40800240148008AE8
:1038A00070470000E4080024014890ED000A7047CA
:1038B000E40800241CB51D486021FDF72FF800F036
:1038C00089F81A4C00209FED1A0A20722075207783
:1038D00084F82400607784F8250084F84000606450
:1038E00084F84800E06484ED010A6082083411A085
:1038F000FCF75EFE14ED010A18A0B7EEC00A8DEDCC
:10390000000B14ED020AB7EEC00A53EC102BFCF7C3
:103910004FFE62891CA02189FCF74AFE227B25A06C
:10392000217802B0BDE81040FCF742BEE408002454
:10393000000000005B41707053746174655F496EF4
:1039400069745D204C6F616465642066726F6D20E0
:10395000454550524F4D3A0D0A0000002020546555
:103960006D7020736574706F696E743A20252E3106
:1039700066C2B0432C2041637475616C3A20252ED9
:103980003166C2B0430D0A002020424C44432073EC
:103990006574706F696E743A2025752052504D2CF5
:1039A0002041637475616C3A2025752052504D0D8D
:1039B0000A000000202054656D70204F4E3A2025EB
:1039C000642C20424C4443204F4E3A2025640D0A7B
:1039D000000000002DE9FC4108226946002000F0AB
:1039E00021FF58B9104DBDF80460BDF80670009C69
:1039F0002C602E8200F084FAB84203D008F028FB35
:103A0000BDE8FC810948844202D80948844203DDAC
:103A1000BAEE040A85ED000A45F2F0508642EFD96D
:103A200000202882ECE70000E40800240000A0C188
:103A300000005C430B481CB501680091008A8DF8BA
:103A40000400010A8DF8051000F05AFA8DF80600FE
:103A5000010A08228DF807100020694600F0E4FEF4
:103A60001CBD0000E408002445F2F051884210B566
:103A700000D90846064C208203F010FEA06194F89D
:103A80004000022802D1012084F82C0010BD000063
:103A9000E4080024024800210177417770470000C4
:103AA000E4080024024A0121117700F041B8000027
:103AB000E40800240348002180F8241080F8251031
:103AC00070470000E4080024024A012182F8241013
:103AD00000F036B8E4080024014880ED010A704780
:103AE000E408002410EE100A0D4A0E49904210B569
:103AF00002D9BBEE040A05E010EE100A884201DD8F
:103B00009FED090A094C84ED000A03F0C7FDE0604F
:103B100094F84800022802D1012084F82C0010BD3E
:103B20000000A0C100005C4300005C43E4080024E6
:103B3000024901224A77086270470000E408002425
:103B40000249012281F8252088627047E408002498
:103B50000348017D11B10021017570470121FBE788
:103B6000E40800240348017A11B100210172704772
:103B70000121FBE7E40800240148007870470000B9
:103B80002C00002403490878FF2801D2401C08704B
:103B9000704700002C00002400F008F84FF000618E
:103BA0000868496880F308888847FEE710B572B650
:103BB000114807F068F8114807F065F8104803F05D
:103BC000CBFD104803F0C8FD0F4806F021FC0F485C
:103BD00006F01EFC0E4806F01BFC0E4806F018FC12
:103BE0000D4806F015FC03F029FB4FF0E021002002
:103BF00008614861886110BDF80600248C07002424
:103C0000E80200243C0300247C050024C8050024AD
:103C10001406002460060024AC06002400F008F816
:103C2000FFF7BAFF01490020087070472C000024FC
:103C3000074808B5016841F08051016000684FF005
:103C4000625100F0805000900248086008BD0000FA
:103C5000E0440258EFBEADDE02480078002800D0F4
:103C6000012070472C000024FEE700001CB50A4C20
:103C70008DF800008DF801100192616809B1684665
:103C800088472078002805D1DDE900020121C4E938
:103C9000070221701CBD000058000024074910B520
:103CA0000A7842B138B1D1E907340022C0E90034C2
:103CB00001200A7010BD002010BD00005800002433
:103CC000F8B5064669460020ADF800000C4800F043
:103CD000E6F8002813D101255FF00004BDF80010BC
:103CE00005FA04F0084201D0012100E0002132462B
:103CF000204600F007F8641CE4B2102CEED3F8BDA7
:103D0000841300242DE9F05F8146164600293949C5
:103D100000EB49034FF0010700EB490235484FF42F
:103D20007A7B4FF0000500EB830001EB8204407AC0
:103D30000BD020B12168A07A751AC0B122E02660AC
:103D40006772A572E572BDE8F09F4FF4C87A78B348
:103D50002068A17A301A657200298046F3D00221CA
:103D600002464846FFF782FFE07AC0B128E01E2DE8
:103D7000E9D3002248460121A772FFF777FFA07A16
:103D80000028E0D0E07A0028DDD15D45DBD32A466B
:103D90004846E7720421BDE8F05FFFF767BFD845EA
:103DA0000FD26168207A711A012802D058B10CE054
:103DB00011E0514509D8002248460521FFF756FF7A
:103DC00025726660BFE72772FBE70321424648463B
:103DD000FFF74CFFF7E7207A0128B4D16068301A6A
:103DE0005045B0D9002248460321FFF73FFF257216
:103DF000A9E70000901300241CB5040010D0012393
:103E00006A468F2100F061F850B9022320469021C4
:103E100001AA00F05AF818B99DF800009A2801D0BC
:103E200001201CBD00201CBD2DE9F84304000E46F6
:103E300029D046B32660500020710025E580C820B7
:103E40002581A57203F036FA304600F07FF8A846C7
:103E50002046FFF7D1FF070009D132208DF80080FE
:103E600003F028FA6946204600F041F870B16D1C55
:103E7000EDB2032D06D2642003F01CFA304600F0A8
:103E800065F8E5E717B10120BDE8F883A11D2046DC
:103E900000F005F808B9E08820810020F4E738B583
:103EA00004000D4609D045B1E0880223AA216A46E4
:103EB0002081204600F009F808B1012038BDBDF886
:103EC00000002880E080002038BD3EB568B162B1B6
:103ED0004FF4FA748DE81C000479012300680A4647
:103EE000214603F0CBFE002800D001203EBD28B1C2
:103EF00021B101230A468A21FFF7E7BF012070475D
:103F0000084A00210846135C401C0428194489B261
:103F1000F9DB0448028A51FA82F000EB122080B2E9
:103F200070470000E40800247047401A00F12101A6
:103F300003296FF0050205D3411C032902D31F3862
:103F4000032801D2104670470020704770B5040066
:103F50000FD020680568016821F00101016002208E
:103F600003F0A8F9206805600520BDE8704003F063
:103F7000A1B970BD014802F0BDBA000020080024BC
:103F8000294A016891423AD0274A1832914236D0E4
:103F9000254A3032914232D0234A483291422ED0C3
:103FA000214A603291422AD01F4A7832914226D06B
:103FB0001D4A9032914222D01B4AA83291421ED013
:103FC0001A4A91421BD0194A1832914217D0174A07
:103FD0003032914213D0154A483291420FD0134AE1
:103FE000603291420BD0114A7832914207D00F4A89
:103FF0009032914203D00D4AA832914211D1CAB2F7
:104000001823103AB2FBF3F26FF30901032A02F00E
:104010000703074AD25CC26500D9091D81650846BD
:10402000704721F0FF01F9E7100002401004024040
:10403000581D010830B5224A012301689142CAB2D5
:104040001BD01F4C1434A14217D01D4C2834A14260
:1040500013D01B4C3C34A1420FD0194C5034A14218
:104060000BD0174C6434A14207D0154C7834A142D0
:1040700003D0134C8C34A1420CD11421114C083ABA
:10408000B2FBF1F10F4A803201F01F0504EB810110
:10409000AB4010E00C4D1824103A0D44B2FBF4F183
:1040A000A82D00D80831094A01F01F0402EB810154
:1040B000064AA3408032603080E80E0030BD000028
:1040C0000854025800580258F0FBFDBF0008024097
:1040D00010B50279531E072B2DD8174C0168A14249
:1040E0001BD0154C1434A14217D0134C2834A142D4
:1040F00013D0114C3C34A1420FD00F4C5034A1428C
:104100000BD00D4C6434A14207D00B4C7834A14243
:1041100003D0094C8C34A14203D10849074C4431E7
:1041200002E00749064C443104EB8202C0E91B213E
:1041300001219940416710BD08540258FC580258AB
:10414000FC08024010B583694FF0C074826A0146D2
:10415000002053B1B3F5005F15D072B1012A0CD025
:10416000022A0AD0032A09D104E01AB1012A06D092
:10417000022A03D1C96AC90100D5012010BDC96A4C
:10418000A142FAD010BD002AF7D0012AF2D0022AAB
:10419000F3D0032AF3D010BD2DE9F04F804E804FAD
:1041A000DFF8FC911836DFF8F8A148370468856D10
:1041B0000AF1300ADFF8ECB14C45DFF8ECC1DFF86A
:1041C000ECE16DD0B4426BD0544569D0BC4267D0AD
:1041D000DFF8D081A8F11808444561D05C455FD074
:1041E00064455DD074455BD0DFF8C481444557D049
:1041F000DFF8BC8108F11808444551D0DFF8B081E0
:1042000008F1300844454BD0DFF8A48108F1480894
:10421000444545D0DFF8988108F1600844453FD017
:10422000DFF88C8108F17808444539D0DFF88081C7
:1042300008F19008444533D0DFF8748108F1A808EC
:1042400044452DD0DFF86C81444529D0DFF86481E6
:1042500008F11408444523D0DFF8588108F12808F4
:1042600044451DD0DFF84C8108F13C08444517D087
:10427000DFF8408108F15008444511D0DFF834815F
:1042800008F1640844450BD0DFF8288108F178086C
:10429000444505D0DFF81C8108F18C08444509D15C
:1042A000D0E91948C4F80480C46E1CB1D0E91C4898
:1042B000C4F8048004684C452ED0B4422CD0544538
:1042C0002AD0BC4228D0374E183EB44224D05C4598
:1042D00022D0644520D074451ED0354EB4421BD048
:1042E000334E1836B44217D0314E3036B44213D064
:1042F0002F4E4836B4420FD02D4E6036B4420BD00C
:104300002B4E7836B44207D0294E9036B44203D0B3
:10431000274EA836B44215D190F85C603F2406F0D1
:104320001F06B440AC600468256825F4802525602C
:104330002EE09A600068C160BDE8F08F9960006867
:10434000C260F9E71B4EB4421BD01A4E1436B44279
:1043500017D0184E2836B44213D0164E3C36B4420D
:104360000FD0144E5036B4420BD0124E6436B442C5
:1043700007D0104E7836B44203D00E4E8C36B4427D
:10438000DAD190F85C60012406F01F06B4406C603E
:10439000046863608368402B0368CFD1C9E70000DD
:1043A0001000024088000240A0000240B800024015
:1043B0001004024008540258704700002DE9FF47DE
:1043C000B5EEC00A0746F1EE10FA03D20120B1EEB5
:1043D000400A00E000203049804610EE100A884272
:1043E00004DA10EE100A2D49884202DB01250A206A
:1043F0000AE010EE100AB0F17E5F02DB02256420B5
:1044000002E003254FF47A706E4600EE900AB6EE95
:10441000001A0A22F8EEE00A5FF0000000EE201A0F
:10442000BDEEC10A10EE101A91FBF2F302FB13135A
:1044300091FBF2F146F82030401C0428F4DB032401
:104440004FF00009AC4206DD56F8240018B914B14B
:10445000B9F1000F0FD056F8240001F035F8AC4246
:10446000385502D140F08001395556F8240020B16A
:104470004FF0010901E000203855641EE2D5B8F183
:10448000000F04D00320395C19B1401EFBD5BDE8F4
:10449000FF8740213954FAE70000C842000020415C
:1044A0001149124810B50AF006FD104804210AF01F
:1044B0003EFD0E480AF0E4FC0D48FF220521FCF702
:1044C00003FA0B48FF220421001FFCF7FDF90848FE
:1044D00000210C38C0F816104183C0F81110417546
:1044E0004170817010BD00003C0300245014002472
:1044F000640000240E48FF22052110B5FCF7E4F902
:104500000B48FF220421001FFCF7DEF908480021B8
:104510000C38C0F816104183C0F81110417541786D
:1045200081F001014170817881F00101817010BD3D
:10453000640000242DE9F04306000F4687B06ED0DA
:104540004749FCF73DFA464C163C10B96078874263
:1045500065D0434805223146FCF707FA67704FF0F3
:10456000000840A13046CDF80080CDF80480FCF76B
:1045700027FA6D4650B1304607F036FD0028304628
:1045800025D0FCF70BF9002407461BE00FB10020F3
:1045900000E071208DF8000071218DF801103F229C
:1045A0008DF802204AE0305D2D2805D0382803D050
:1045B000A0F13001092904D800F086FFC4F10401FC
:1045C0006854641CBC4239DA052CECDB36E0FCF79D
:1045D000D8F825491422064602A8FCF743F900241E
:1045E0000DF108097EB10A204946002E10DD052C88
:1045F0000EDA96FBF0F200FB126296FBF0F641F841
:104600002420641CF1E70124CDF80880002602E094
:1046100000260BE026B91FB18DF8008005E01BE0F5
:1046200059F8260000F050FFA855761CA642F1DB91
:10463000404601E02855641C052CFBDB084E0A3E71
:1046400000240A4821462A5D0AF07CFC295D601C92
:104650003155C4B2052CF4D307B0BDE8F083000097
:104660006E0000244F464600441D010850140024EB
:104670002DE9FC5F05000C4675D05C49FCF7A0F9FC
:104680005A4E113E10B9B07884426CD0574804227B
:104690002946FCF76AF9B47055A14FF00009284685
:1046A000CDF80090FCF78CF9EA4658B1284607F09F
:1046B0009BFC002828461ED0FCF770F80024064614
:1046C000574613E00CB1002000E071208DF8000087
:1046D00071218DF801103F228DF8022071E0285DD4
:1046E00000F0F2FEC4F10301641C7854B44268DAAD
:1046F000042CF4DB65E00AF0DBFCB7EEC00BB5EE92
:10470000C00AF1EE10FA03D20125B1EE400A00E032
:104710000025B2EE041AF6EE000A0A2140EE010A64
:104720006423002C4FF47A7BBDEEE00A10EE104AB1
:1047300094FBF1F294FBF3F394FBFBF694FBF1F0A2
:1047400092FBF1F793FBF1FC96FBF1F801FB1040B3
:1047500001FB172201FB1C3701FB1868019203D0F3
:104760008DF8009004E03FE000F0AEFE8DF8000010
:10477000019800F0A9FE40F080004FF040068DF84F
:10478000010025B1642C04DA8DF802600FE0642C7E
:1047900005DB384600F098FE8DF8020001E08DF848
:1047A000029025B1642C02DB8DF8036009E05C45C2
:1047B00005DB404600F088FE8DF8030001E08DF82F
:1047C00003905546094E093E00242A5D305D824221
:1047D00006D0601DC1B207480AF0B4FB285D305511
:1047E000641CE4B2042CF0D3BDE8FC9F69000024F3
:1047F0004F4646005014002410B5084900240848CC
:104800000AF059FB00B10124054804493722183049
:10481000FFF70AFB00B10124204610BD3C03002431
:104820006C13002407F01EBC07F044BC72B6FEE710
:10483000054805490839026842F00202026008682A
:104840008004FCD5704700000C4802582DE9F04F59
:10485000074689461E222DED028BADF6045DB0F8A9
:1048600040000DF68448B7F8421000F00F0BCDF869
:10487000F41C02EB1031CDF8E81C0DF6F842C0F341
:104880000311C0F3032003C25FF0000007EB4001F7
:104890008200401CB1F8441001F00F030E0BC1F36D
:1048A0000314C1F3032508EB820101F1040148F868
:1048B0002230062881E87000E8DB002058F820103C
:1048C000072902DD103948F82010401C1828F5DBB4
:1048D0005FF000010DF6044007EB41038A00491C1C
:1048E000B3F85030082903F00F044FEA133CC3F328
:1048F0000315C3F3032600EB820303F1040340F81E
:10490000224083E86010E7DB5FF0000150F82120CF
:10491000072A02DD103A40F82120491C2029F5DB46
:104920000121002601FA0BFB09F5805ADFED5F8AB1
:10493000B6EE008A0DF104085FF000055C4A05EB55
:10494000461007EB400308EB8004B3F88030C3F354
:10495000051000EE100AB8EE400A10EE100A84EDC1
:10496000000A904205DDDFED530A30EE600A84ED67
:10497000000A00EE10BA94ED002ADDF8E80C0DF6FE
:104980000441B8EEC00A00EE900A0DF6844022EE13
:10499000000AB8EE601B84ED000A50F82600DDF82E
:1049A000F82C51F825109040DDF8F42C0244DDF885
:1049B000FC0C8140501800EE900AF8EEE00A30EE50
:1049C000800A84ED000AB0EE000B0AF08DFB94ED36
:1049D000001A6D1C202DB7EEC11A81EE002BB7EE28
:1049E000C20B84ED000ADAED940ADAED951A99ED1E
:1049F000061A70EEA10A60EE810A00EEC80A84ED84
:104A0000000AC8EE800AC4ED000A97DB761C182E57
:104A100092DB9DED010A5FF0010046464FF44077BE
:104A200006EB8001D1ED000AF4EEC00AF1EE10FAB7
:104A300001DDB0EE600A401CB842F1DB0024F0EE6C
:104A4000000A4FF08E4103E020EE200A641CE4B21D
:104A500010EE100A8842F7DB5FF0000500EE104A06
:104A6000B8EE401BB0EE000B0AF03EFB06EB8502F1
:104A700009EB450192ED001A6D1CBD42B7EEC11A5B
:104A800020EE010BB7EEC00B30EE080ABCEEC00AF8
:104A900010EE100AA1F84A00E0DB89F84A460DF64C
:104AA000045DBDEC028BBDE8F08F0000BD3786359C
:104AB0000000F8410000804230B5838A8024B0F8BD
:104AC0006A20224D04EA131002F03F0400EE104A5F
:104AD00080F08003B8EE400A10EE100AA84203DD11
:104AE000DFED1B0A30EE600AC2F38410194C00EEB1
:104AF000900A9FED191ADFED191AF8EE600A20EE00
:104B0000011A10EE900AA04201DD70EEE10AD00A0F
:104B100000EE100AB6EE002AB8EE400A60EE820AF5
:104B200010EE100AA04201DD30EE610AF4EE001A28
:104B300001F5805281F8253020EE210A82ED971A86
:104B4000C2ED980A82ED990A30BD00000000F841DC
:104B500000008042000070410000803D00000042E3
:104B60002DE9F04105460E461B212DED048BB0F8D2
:104B70004000B5F8742001EB1031C2F30900B0F524
:104B8000007F60F30F0403DBA0F5806060F30F0487
:104B9000900A1F2860F31F4402DD403860F31F4471
:104BA000B5F87230474A04EB2440C3F3090300EE22
:104BB000103A60F31F44B8EE408A18EE100A904293
:104BC00003DD9FED410A38EE408A00EE101AB8EE80
:104BD000401BB0EE000B0AF087FAB7EEC82AB5F812
:104BE00072003A49800A82EE001B00EE100AB8EE0D
:104BF000400A10EE100A8842F7EEC18B03DDDFEDAC
:104C0000340A30EE600A9FED331AF7EE000A95F889
:104C1000760040EE010A00EE100A2F4FDFED2F9ACA
:104C2000B8EE408AB0EE680A18EE100A20EE809ABC
:104C3000B84201DD38EE698A95F87000C0F30310C0
:104C4000083000EE100AB8EE401BB0EE000B0AF080
:104C50004BFAB7EEC81A81EE002BB7EEC20B86ED09
:104C6000080AB5F87600000A00EE100AB8EE408A8D
:104C700018EE100AB84201DD38EE698AB5F8700006
:104C8000C0F3032000EE100AB8EE401BB0EE000B9C
:104C90000AF02AFAB7EEC81A06F58050211481EE00
:104CA000002BB7EEC20B86ED070AC0ED948A80EDAB
:104CB000959AA0F85842A0F85A12BDEC048BBDE8B2
:104CC000F08100000080FF43000080440000F841B4
:104CD000000080420000003C0000FE4200008043D3
:104CE0002DE9F0410E46844600214FF6FF730C4635
:104CF0000D46084606EB410202F580524F1CB9B240
:104D0000A2F868320529A2F87232F3D300214FF4D9
:104D1000407300BF0CEB4102B2F88020BAB1D20759
:104D200007D006EB450202F580526D1CADB2A2F829
:104D30007212491C89B2994203D2052C01D2052D69
:104D4000E8D3042C0CD96FF00200BDE8F08106EB2B
:104D5000440202F58052641CA4B2A2F86812E8E78B
:104D6000042D02D96FF00300EFE76119042902D97D
:104D70006FF00400E9E7002317E000BF06EB4301F2
:104D80005F1C01F580580CE006EB470000F58050F1
:104D9000B0F86812B8F86802FFF7C7F80028D4D155
:104DA0007F1CA742F0DB5B1C9BB2A342E6D300232F
:104DB00017E000BF06EB43015F1C01F580580CE0D3
:104DC00006EB470000F58050B0F87212B8F8720296
:104DD000FFF7ABF80028B8D17F1CAF42F0DB5B1CBB
:104DE0009BB2AB42E6D3002317E000BF06EB4301C2
:104DF000002701F580580CE006EB470000F58050D5
:104E0000B0F87212B8F86802FFF78FF800289CD14A
:104E10007F1CAF42F0DB5B1C9BB2A342E6D394E75E
:104E2000B0F96000B0F5004F00DB00B28882704737
:104E3000B0F878000A4A000A00EE100AB8EE400AFC
:104E400010EE100A904203DDDFED060A30EE600A34
:104E5000DFED050A20EE200A81ED0A0A7047000006
:104E60000000FE42000080430000003970B530F8B9
:104E70007E3F6FF02702A1F840200024A1F84240B5
:104E800010F80449C3F301334FF4C87603EB8303EE
:104E9000C4F30314A1F8444085885B00012214FB8D
:104EA00003F4C5F30325A1F84440DFED260A15FB02
:104EB0000343A1F84630A1F848600378047900EE76
:104EC000103A04F00F031E4D0833B8EE400A9A4022
:104ED00081ED0B0A0488230A00EE103AB8EE400A6E
:104EE00081ED0C0A837800EE103AB8EE400A81EDAD
:104EF0000D0A4088000A00EE100A0020B8EE400AB1
:104F000081ED0E0A01EB800393ED0B0A10EE104ABF
:104F1000AC4203DD30EE600A83ED0B0A00EE102A8E
:104F200093ED0B1A401CB8EEC00A0428C1EE001A1B
:104F3000C3ED0B1AE6DB9FED040A81ED0F0A70BD8D
:104F40000000FE420000804317B751B92DE9F34F2E
:104F500007462DED028BADF6044DB0F86C0040F322
:104F600007217F2900DD49B28DF8001C40B27F285F
:104F700000DD40B28DF8020CB7F86E0040F3072157
:104F80007F2900DD49B28DF8011C40B27F2800DD89
:104F900040B28DF8030C97F87010E846DFF888B13E
:104FA000C1F3031000F1080A012001F00F010026EF
:104FB00000FA01F95FF0000505EB4610C11700EBA0
:104FC000D07200EB916300EBD1649B115B4222F045
:104FD0000101621102EB4302411A01EB420107EBAE
:104FE0004002C9B292F88040C4F3420C00EE10CAED
:104FF00008EB8004B8EE400A10EE100A84ED000AB7
:10500000584505DDF2EE000A30EE600A84ED000A34
:1050100000EE109A94ED002A0DF54060B8EEC00A3B
:1050200000EE90AA22EE000AB8EE601B84ED000AA2
:10503000405600EE900AF8EEE00A30EE800A84ED69
:10504000000AB0EE000B0AF04FF894ED001A6D1C48
:10505000202DB7EEC11A81EE002BB7EEC20B84ED06
:10506000000AA9DB761C182EA4DB9DED000A5FF078
:10507000010046464FF44077B0EEC00A06EB8001CF
:10508000D1ED000AF0EEE00AF4EEC00AF1EE10FAFB
:1050900001DDB0EE600A401CB842EFDB00254FF0A6
:1050A0008541F0EE000A03E020EE200A6D1CEDB20F
:1050B00010EE100A8842F7DB5FF00004B6EE008ABB
:1050C00000EE105AB8EE401BB0EE000B0AF00CF8E0
:1050D00006EB840090ED001ADDF8100CB7EEC11A53
:1050E00000EB040120EE010BB7EEC00BB5EEC00AD9
:1050F000F1EE10FA02D230EE480A01E030EE080A72
:10510000641CBC42BDEEC00A10EE100A81F84C0CC3
:10511000D6DBDDF8100C80F84C5F0DF6044DBDECCD
:10512000028BBDE8FC8F0000000040402DE9F047F5
:105130008A462DED028BADF6084DB0F86830190B9C
:10514000072900DD10398DF8001CC3F30322072A5C
:1051500000DD103A8DF8022CC3F30311072900DD9E
:1051600010398DF8011C03F00F02072A00DD103AF8
:105170008DF8032CB0F8700000250DF54069E84665
:10518000C0F303265FF0000404EB451000EE106A44
:10519000C11700EBD07200EB916300EBD1679B115C
:1051A0005B4222F001017A1102EB4302411A01EB4A
:1051B0004201C9B2B8EE401B08EB800719F9011093
:1051C00000EE101AB8EEC00A87ED000AB0EE000B30
:1051D00009F08AFF97ED001A641C202CB7EEC12A53
:1051E00082EE001BB7EEC10B87ED000ACCDB6D1C15
:1051F000182DC7DB9DED000A012046464FF440778D
:10520000B0EEC00A06EB8001D1ED000AF0EEE00A34
:10521000F4EEC00AF1EE10FA01DDB0EE600A401CB7
:10522000B842EFDB00254FF08541F0EE000A03E0C5
:1052300020EE200A6D1CEDB210EE100A8842F7DB5A
:105240005FF00004B6EE008A00EE105AB8EE401B84
:10525000B0EE000B09F048FF06EB84000AEB0401F6
:1052600090ED001AB7EEC11A20EE010BB7EEC00B9D
:10527000B5EEC00AF1EE10FA02D230EE480A01E0B3
:1052800030EE080A641CBC42BDEEC00A10EE100AE3
:1052900081F84D0FD8DB41F24D2000F80A500DF691
:1052A000084DBDEC028BBDE8F08700002DE9F34FFF
:1052B000018CB8B0B0F9223001F00F0AB3F5004FFD
:1052C000C1F30319C1F3032E00DB1BB2002120AA96
:1052D00000EB41058C00491CAD8C062905F00F063A
:1052E0004FEA153CC5F30317C5F3032802EB840509
:1052F00005F1040542F8246085E88011E8DB00210F
:10530000934652F82140072C03DD103C5A464BF8D7
:105310002140491C1829F3DB0022694600EB4204B6
:105320009500521C248E082A04F00F064FEA143C04
:10533000C4F30317C4F3032801EB850404F1040448
:1053400041F8256084E88011E8DB002251F8224012
:10535000072C02DD103C41F82240521C202AF5DBCC
:105360005FF0000400225BF8245005FA0EF500BF40
:1053700002EB4416DDF8E4C000EB46070CEB4606F2
:10538000B7F88070BF0AA6F84C761F2F02DD403FA9
:10539000A6F84C76BFB231F8228007FA0AF7521C01
:1053A000202A08FA09F805EB080C1F446744A6F800
:1053B0004C76DDDB641C182CD4DB3AB0BDE8F08FF2
:1053C00070B50C460546254A2DED028BB0F86410E9
:1053D000880A00EE100AB8EE400A10EE100A904259
:1053E00003DDDFED1F0A30EE600A9FED1E1AC1F3E8
:1053F00009001D4900EE900A20EE018AB8EE600A0D
:1054000010EE100A884203DDDFED180A30EE600A64
:10541000F4EE000AB5F86260B2EE0C1B60EE208A72
:10542000B0EE000B09F060FE288CB2EE002B00F409
:10543000704001EE100A84ED018AC4ED028AB8EED4
:10544000411BA68181EE003B33EE020BB7EEC00B91
:1054500084ED040ABDEC028B70BD00000000F84131
:1054600000008042000080390080FF43000080443B
:1054700090F87800094A00EE100AB8EE400A10EEE3
:10548000100A904203DDDFED060A30EE600ADFED20
:10549000050A20EE200A81ED060A70470000FE4250
:1054A000000080430000003DB0F86620100A7F280D
:1054B00001DDA0F58070D2B24FF440434001088076
:1054C00003EB42124A8070470949092801D8085C59
:1054D0007047C0B22D2807D0A0F13002092A05D8A4
:1054E000084410F8300C7047402070470020704787
:1054F000381D01082DE9F0470F4690F850109AB07A
:10550000044601294FF0000915D00026DFF8F88085
:10551000012084F8500015961696216841450ED159
:105520003A4D0095284606F08FFD8246206806F029
:105530008BFD60B10EE002201AB0BDE8F087606D0F
:1055400084F8506040F0200060650120F4E7BAF173
:10555000000F09D0616D4FF0010941F02000606536
:10556000484684F85060E7E720684146884201D009
:10557000A84201D1264800E0264840F61F72D7F81D
:1055800000C0254BBCF1000F23D0D0F808C0D7F8DD
:1055900004802CF4404C4CEA080CC0F808C0D4F845
:1055A00000C08C4501D0AC4507D18968AB6801F0DB
:1055B000010103F00103194302E0996801F00101C0
:1055C0000029CDD1BD6839688368294393431943C5
:1055D00017E0876827F44047876027688F4201D02B
:1055E000AF4207D18968AB6801F0010103F0010304
:1055F000194302E0996801F001010029B0D18168E6
:1056000091438160ACE7000000200240002102408D
:105610000023024000630258006002582DE9F84F51
:105620000446EB4E0020DFF8ACB30090002794F85E
:1056300050000D46DFF8A0A3012808D04FF0010963
:1056400084F85090206806F0FBFC18B171E102204C
:10565000BDE8F88F286800280EDB21680303CA69BB
:1056600028D090FAA0F0B0FA80F000BF00F01F033D
:1056700009FA03F00243CA61D5E900124FF00C0C9D
:1056800020681F23C1F384610CEA921C02F01F0200
:10569000604493409140026B9A430A43026320683E
:1056A00006F0CEFC8046206806F0C6FC58EA0000F2
:1056B00003D08DE0C0F38460D8E72A680423206813
:1056C0004FF0070CA96803EAD25318444369C2F3A8
:1056D00004520CFA02FC914023EA0C030B43436191
:1056E000BE490968B9EB117F06D121686869C968AC
:1056F000C1F38201490008E02068C168C906C16899
:105700006869F5D501F01001490888402969042924
:105710002ED023682A6803EB810102F0F8420B6E59
:10572000024303F0004010430866697E226828693E
:10573000012917D05FF0000102EB8000026E22F019
:1057400000420A430266297E20682A6901290CD09A
:105750000021036902F01F02914023F4F0420A4342
:10576000026135E04FF00041E6E74FF40061F0E7F9
:1057700020682978026E02F0F842B2EB816F03D103
:10578000016E21F00041016620682978426E02F026
:10579000F842B2EB816F03D1416E21F000414166C6
:1057A00020682978826E02F0F842B2EB816F03D153
:1057B000816E21F00041816620682978C26E02F076
:1057C000F842B2EB816F03D1C16E21F00041C16696
:1057D0002068816811F0010F72D150F8C03F2A7B18
:1057E000DFF8FCC1296802F018022CFA02FCC1F3B0
:1057F000130823EA08030CEA010C43EA0C030360D4
:10580000E96859456CD177482268DFF8DCC1DFF8D8
:10581000DCB18242DFF8D8E17648774BDFF8DC81F3
:1058200022D12968614524D0B1EB4C0C38D0A1F1CC
:10583000496CBCF1080C35D0A1F1865CBCF1100CB0
:1058400032D0DFF8BCC1614528D071453AD08142E1
:1058500030D0994232D06B48814201D16A4831E060
:1058600041452ED169482DE0B2422AD129686145CF
:1058700001D1012026E0A1F1066CBCF1040C0FD08F
:10588000A1F1496CBCF1080C0CD0A1F1865CBCF113
:10589000100C09D0DFF868C1614507D15C4811E000
:1058A00058460FE05B480DE05B480BE0714509D0BE
:1058B000814201D1184605E09942D1D1574801E013
:1058C0003CE00020D16903031AD090FAA0F0B0FAAE
:1058D00080F000BF00F01F0309FA03F00143D1611B
:1058E000D5F800C0BCF1000F28DA3E4B20684C49C7
:1058F000DFF83091984201D0B04203D10A4602E06D
:10590000800EE7E74A469268984202F0E07201D0C2
:10591000B04209D19D68D6F8088005F0010508F06D
:10592000010845EA080503E0DAF8085005F001052A
:105930004DB1606D012740F020006065002084F8C3
:105940005000384684E6384DAC451CD115021AD4B7
:105950005045F3D1984202D0B04200D049468B68FE
:1059600042F4000023F0E07202438A6030492F487D
:105970000968B1FBF0F04000801C00E0401E009080
:105980000028FBD1DAE72B4DAC450CD1D5010AD468
:105990005045D3D1984202D0B04200D049468B68DE
:1059A00042F080700EE0244DAC45C7D15502C5D4FD
:1059B0005045C3D1984202D0B04200D049468B68CE
:1059C00042F4800023F0E07202438A60B6E70000F0
:1059D000002102400000FF47006002580010005CF8
:1059E000FFFF0F0000200240020030044000201999
:1059F0000004002A0008302E001060320000844BA2
:105A00002000F01400002143000052470000B84F6E
:105A10000002B0258000501D00018021002090363A
:105A20000023024000630258000084CB400D0300B5
:105A3000B0000024000052C70000B8CFF8B54FF006
:105A4000000604003546009602D0606D10B107E0F4
:105A50000120F8BD204600F005F9A66584F85060E5
:105A600020688168C1F3407119B18168704A1140A2
:105A7000816020688168C1F3007181B981686D4AD5
:105A8000114041F0805181606C496B480968B1FB5D
:105A9000F0F0401C00E0401E00900028FBD1206880
:105AA0008168C1F3007141B9616D012541F01001B8
:105AB0006165A16D41F00101A16506F0C1FA616D5A
:105AC000C90600D420B1606D012540F0100093E0BC
:105AD000606D20F4807040F002006065206881688D
